:040000005EEF00F0BF
:060008005382A2ED04F09A
:100018005380D8CF0FF0E8CF10F0E0CF11F0FACF2F
:1000280012F0FBCF13F0E9CF14F0EACF15F0E1CFCF
:1000380016F0E2CF17F0D9CF18F0DACF19F0F3CFD6
:100048001AF0F4CF1BF0F6CF1CF0F7CF1DF0F8CF65
:100058001EF0F5CF1FF0F29EA1A207D0010E4A268E
:10006800000E4B224C224D22A192F28E1FC0F5FFAA
:100078001EC0F8FF1DC0F7FF1CC0F6FF1BC0F4FF31
:100088001AC0F3FF19C0DAFF18C0D9FF17C0E2FF82
:1000980016C0E1FF15C0EAFF14C0E9FF13C0FBFF5B
:1000A80012C0FAFF11C0E0FF10C0E8FF0FC0D8FF70
:0800B8005390100035EF06F033
:100600000001000A006400E80310270D74696D659D
:1006100020707265737320253130756D73000A0D7B
:1006200070726F6772616D2073746172740A0D006D
:0106300000C9
:10063200310E3A6E000E3B6EE1D0250E4118D8B451
:1006420009D02DC0D9FF2EC0DAFF41C0DFFF2D4AED
:100652002E2AD4D0000E406E000E3F6E000E396E70
:100662002FC0F6FF30C0F7FF0800F5505FEC06F030
:10067200D8A036D0000E406E000E3F6E3FC020F074
:1006820040C021F0000E236E0A0E226E4CEC06F0E2
:1006920020C03FF021C040F0D00E356EFF0E366E06
:1006A2002FC0F6FF30C0F7FF0800F550376E386AEA
:1006B200355037263650382237503F2638504022A0
:1006C2002F4A302A2FC0F6FF30C0F7FF0800F5503E
:1006D2005FEC06F0D8A004D0D1D7C00E391211D0E9
:1006E2002FC0F6FF30C0F7FF2F4A302A0800F5CF9F
:1006F20041F04150000AD8B48DD0750AD8B4EDD774
:100702007DD03AC0D9FF3BC0DAFFDECF3CF0DDCF6F
:100712003DF0020E3A26000E3B22010E416E050EFE
:100722004118D8B412D04150020D010EF324F66ED6
:10073200060EF420F76E0900F5503C5C0900F550F6
:100742003D58D8A002D0412AEAD7800E41BE7F0E82
:10075200356E3F50415C4050800A3558D8B007D0C2
:1007620041503F5E000E41BEFF0E405A04D0000EC3
:10077200406E000E3F6E3F504010D8B40FD02DC0D7
:10078200D9FF2EC0DAFF200EDF6E2D4A2E2A3F0639
:10079200D8A040063F504010D8A4F1D741C03EF047
:1007A20029D03E50020D010EF324F66E060EF420FF
:1007B200F76E0900F5CF22F00A00F5CF23F03CC016
:1007C20020F03DC021F095EC05F020C027F021C0BB
:1007D20028F0000E2A6E0A0E296EBEEC05F0275094
:1007E200300F416E2DC0D9FF2EC0DAFF41C0DFFFAE
:1007F2002D4A2E2A3E063E28D8A4D3D72FC0F6FF74
:1008020030C0F7FF2F4A302A0800F5CF41F041509F
:10081200D8A413D72DC0D9FF2EC0DAFF000EDF6E89
:100822001200000E426E000E436E000E446E000E69
:10083200456ED388D38AD38C030ED312D3A4FED7AA
:10084200000E936E000E8A6E9482000E216E330E9D
:10085200206E000E236E000E226E000E256E010E1B
:10086200246E000E276E000E266E1AEC06F0BA50A9
:10087200F00B0509BA6EB19EB19CB186B150CF0B97
:100882001009B16EB192A292A280A082A080D08EF5
:10089200F28EF28CB180000E2D6E010E2E6E1E0EA7
:1008A2002F6E060E306E19EC03F0000E216E010E53
:1008B200226EFFEC05F05050D8B4FDD746C02CF0A4
:1008C20047C02DF048C02EF049C02FF0510E306EB7
:1008D200000E316E39EC05F02CC042F02DC043F011
:1008E2002EC044F02FC045F0000E2D6E010E2E6E6C
:1008F2000B0E2F6E060E306E42C020F043C021F068
:1009020044C022F045C023F0E80E246E030E256E8B
:10091200000E266E000E276EF8EC04F020C031F0B7
:1009220021C032F022C033F023C034F019EC03F0BE
:10093200000E216E010E226EFFEC05F0000E506ECD
:10094200BAD70600FACF01F0FBCF02F0E9CF03F0ED
:10095200EACF04F0E1CF05F0E2CF06F0D9CF07F0FD
:10096200DACF08F0F3CF09F0F4CF0AF0F6CF0BF0AC
:10097200F7CF0CF0F8CF0DF0F5CF0EF0F29EA1A05C
:1009820017D04AC046F04BC047F04CC048F04DC0AB
:1009920049F0BBCF51F0BCCF52F0000E4A6E000EB0
:1009A2004B6E000E4C6E000E4D6E010E506EA190FD
:1009B200F28E0EC0F5FF0DC0F8FF0CC0F7FF0BC0A2
:1009C200F6FF0AC0F4FF09C0F3FF08C0DAFF07C050
:1009D200D9FF06C0E2FF05C0E1FF04C0EAFF03C081
:1009E200E9FF02C0FBFF01C0FAFF53921100000EA3
:1009F200286E000E296E000E2A6E000E2B6E2450F9
:100A0200251026102710D8B42AD0010E2C6E06D03D
:100A1200D89024362536263627362C2A27AEF8D704
:100A2200D890283629362A362B362450205C255079
:100A320021582650225827502358D8A009D0245094
:100A4200205E2550215A2650225A2750235A2880A8
:100A5200D89027322632253224322C2EE1D728C0D4
:100A620020F029C021F02AC022F02BC023F012006E
:100A7200000E336E000E326E320E206E000E216EAC
:100A820030C022F031C023F0000E256E020E246E1B
:100A9200DFEC05F02CC020F02DC021F02EC022F09A
:100AA2002FC023F0FF0E246EFF0E256E000E266E61
:100AB200000E276E6AEC05F0325020242C6E335063
:100AC20021202D6E000E22202E6E000E23202F6E6E
:100AD2001200000E286E000E296E000E2A6E000E05
:100AE2002B6E20A008D024502826255029222650DB
:100AF2002A2227502B22D89024362536263627360E
:100B0200D89023322232213220322050211022105A
:100B12002310D8A4E6D728C020F029C021F02AC08B
:100B220022F02BC023F01200000E256E000E246E60
:100B320022502310D8B41CD0010E266E04D0D890B7
:100B420022362336262A23AEFAD7D89024362536E3
:100B52002250205C23502158D8A005D02250205E7C
:100B62002350215A2480D89023322232262EEDD7C8
:100B720024C020F025C021F0120029502A10D8B438
:100B820018D0010E2B6E04D0D89029362A362B2A83
:100B92002AAEFAD72950275C2A502858D8A004D068
:100BA2002950275E2A50285AD8902A3229322B2ED1
:100BB200F1D727C027F028C028F0120022C028F061
:100BC20023C029F020C026F021C027F00ED028C073
:100BD200D9FF29C0DAFF26C0E1FF27C0E2FFDFCF3D
:100BE200E7FF284A292A264A272A2406D8A02506CA
:100BF2002428EDE12528D8B41200E9D7000E236E8F
:100C02000CD02350010DF3502124D96EF450222030
:100C1200DA6EDF506EEC06F0232A2350010DF350FA
:100C22002124D96EF4502220DA6EDF50D8B412009B
:100C3200E8D7948E948C2150B06E20C0AFFFAB8861
:100C4200AB8E26B002D0B89601D0B88622B002D0C0
:100C5200AC9801D0AC8824B002D0AC9401D0AC8462
:100C6200AC8A9F8A9D8A120001EE00F011EE00F01C
:100C7200EE6AE550E150FCE1E250FAE100EE46F0A6
:100C82000D0EEE6AE806FDE153905392000EF86EE7
:100C9200000112EF04F020502202F3CF24F0F4CF2F
:100CA20025F020502302F350252621502202F35032
:100CB200252624C020F025C021F01200226E000E4D
:100CC200216E3A0E226005D02F0E226402D0010E50
:100CD200216E21C020F020301200206E20C0ADFF16
:0A0CE20001D000F0ACB21200FCD704
:020000040020DA
:08000000FFFFFFFFFFFFFFFF00
:020000040030CA
:0E000000FF08191EFF8181FF0FC00FE00F40A7
:00000001FF
